:100000000C94530B0C947B0B0C947B0B0C947B0B80
:100010000C947B0B0C947B0B0C947B0B0C947B0B48
:100020000C947B0B0C947B0B0C941E0E0C94900E7A
:100030000C947B0B0C947B0B0C947B0B0C947B0B28
:100040000C947B0B0C947B0B0C947B0B0C947B0B18
:100050000C947B0B0C947B0B0C947B0B0C94E91095
:100060000C947B0B0C947B0B0C947B0B0C947B0BF8
:100070000C947B0B0C947B0B0C947B0B0C947B0BE8
:100080000C947B0B0C947B0B0C947B0B0C947B0BD8
:100090000C947B0B0C947B0B0C947B0B0C947B0BC8
:1000A0000C947B0B0C947B0B0C947B0BF0F89C8ECC
:1000B0008783878E9CF8F00000FEFF030303030391
:1000C000070EFCF80000FEFF0303030303070EFC0A
:1000D000F80000FFFF00000000000000FFFF00002C
:1000E000FEFF8383838383C7EE7C380000F8FC0E19
:1000F00007030303070EFCF800003F7FE0C0808089
:10010000C0E07F3FFFFF01010101010101FFFF008E
:1001100000FFFF0C0C0C0C1C3E77E3C100007FFFBE
:10012000C0C0C0C0C0E0703F1F00001F3F70E0C0F3
:10013000C0C0E0703F1F00007FFFC1C1C1C1C1E36B
:10014000773E1C00001F3F70E0C0C0C0E0703F1F42
:10015000000000000001FFFF01000000D5F08D1439
:10016000A1C881CFD9F1AF20002020257520576983
:100170006E730A20202575204C6F73736573002001
:1001800062792073657269736D616E0048414E47F4
:100190004D414E2100594F5520474F54204954217D
:1001A00000594F5527524520444541442100080B32
:1001B0000002020201000904000001020200000521
:1001C000240010010524010101042402060524066F
:1001D00000010705810310004009040100020A0024
:1001E00000000705020240000007058302400000EE
:1001F0000403090412010002EF020140412336808A
:1002000000010102030141726475696E6F204C4C5C
:10021000430041424C313330360041534154424552
:100220004259444F474F48454946494E4E4F4F4625
:100230004F4E4F52534F544F5550414354414952E2
:10024000414C4C414E44414E54414E5941524D4116
:100250005254424144424147424544424545424945
:1002600054424F58424F59425554434154434F57BB
:10027000435259435550444159444F4744525945BC
:100280004152454747454E444559454641524641EE
:1002900054464C59464F5247455447554E48415491
:1002A000484F57494345494C4C494E4B4B45594C97
:1002B00041574C45474C45544C49504C4F574D4184
:1002C0004E4D41504D41594E45544E45574E4F5459
:1002D0004E4F574E55544F46464F494C4F4C444F46
:1002E000555450454E50494750494E504F54505523
:1002F00054524154524159524544524F445255422E
:1003000052554E534144534159534541534545532A
:100310004558534B59534F4E53554E5441585448DA
:100320004554494E544F45544F50555345574152EB
:1003300057415857415957455457484F57485959AD
:100340004553594F5541424C45414349444152431D
:100350004841524D59424142594241434B42414C1E
:100360004C42414E44424153454241544842454C1F
:100370004C42454E544249524442495445424C4FE6
:1003800057424C5545424F4154424F4459424F4EBB
:1003900045424F4F4B424F4F5442554C42425552AB
:1003A0004E43414B454341524443415245434152E0
:1003B000544348494E434F414C434F4154434F4CA3
:1003C00044434F4D42434F4D45434F4F4B434F5096
:1003D00059434F5244434F524B4441524B44454181
:1003E00044444541524445425444454550444F4F8E
:1003F00052444F574E44524F504455535445415325
:1004000054454447454556454E4556455246414359
:10041000454641435446414C4C4641524D46454168
:10042000524649524546495348464C4147464C413D
:1004300054464F4C44464F4F44464F4F54464F52FC
:100440004B464F524D464F574C4652454546524FEC
:100450004D46554C4C4749524C47495645474F41EC
:1004600054474F4C44474F4F4447524559475249D0
:10047000504841495248414E4448415244484154F1
:100480004548415645484541444845415248454103
:100490005448454C5048494748484F4C45484F4FB1
:1004A0004B484F5045484F524E484F55524944458E
:1004B0004149524F4E4A4F494E4A554D504B454582
:1004C000504B49434B4B494E444B4953534B4E457C
:1004D000454B4E4F544C414E444C4153544C415467
:1004E000454C4541444C4541464C4546544C494693
:1004F000544C494B454C494E454C4953544C4F4341
:100500004B4C4F4E474C4F4F4B4C4F53534C4F550A
:10051000444C4F56454D414B454D414C454D415244
:100520004B4D4153534D45414C4D4541544D494C24
:100530004B4D494E444D494E454D4953544D4F4FF7
:100540004E4D4F56454D5543484E41494C4E414DF9
:10055000454E4541524E45434B4E4545444E455709
:10056000534E4F53454E4F54454F4E4C594F5045A7
:100570004E4F56454E4F56455250414745504149C2
:100580004E504152545041535450495045504C41A3
:1005900059504F4F5250554C4C50554D505055534B
:1005A000485241494C5241494E524154455245539B
:1005B000545249434552494E47524F4144524F4C81
:1005C0004C524F4F46524F4F4D524F4F5452554C35
:1005D00045534146455341494C53414C5453414D79
:1005E0004553414E44534541545345454453454575
:1005F0004D53454C4653454E445348495053484F3C
:100600004553485554534944455349474E53494C23
:100610004B53495A45534B494E534C4950534C4FF9
:1006200057534E4F57534F4150534F434B534F46E1
:1006300054534F4D45534F4E47534F5254534F55BC
:1006400050535441525354454D5354455053544FB5
:1006500050535543485357494D5441494C54414BCD
:100660004554414C4B54414C4C54455354544841CF
:100670004E544841545448454E5448494E544849B4
:100680005354494C4C54494D45544F574E54524184
:100690005954524545545255455455524E554E495C
:1006A00054564552595649455757414C4B57414C62
:1006B0004C5741524D574153485741564557454570
:1006C0004B57454C4C574553545748454E5748494E
:1006D000505749444557494C4C57494E4457494E49
:1006E0004557494E4757495245574953455749542D
:1006F00048574F4F44574F4F4C574F5244574F5204
:100700004B574F524D5945415241424F5554414626
:10071000544552414741494E414D4F4E47414E4746
:100720004C45414E4752594150504C454157414B21
:1007300045424153494E424552525942495254480A
:10074000424C41434B424C414445424C4F4F444242
:100750004F415244425241494E4252414B4542520E
:100760004153534252454144425249434B42524FF6
:10077000574E425255534842555253544341555394
:1007800045434841494E4348414C4B4348454150FD
:1007900043484553544348494546434C45414E43DD
:1007A0004C454152434C4F434B434C4F5448434CB0
:1007B0004F5544434F554748434F56455243524186
:1007C000434B4352494D45435255454C4352555373
:1007D000484355525645444541544844495254595A
:1007E000444F554254445241494E44524553534458
:1007F00052494E4B4541524C59454152544845513E
:1008000055414C4552524F524556454E544556451A
:10081000525946414C53454649454C444649474840
:100820005446495253544649584544464C414D4517
:10083000464C4F4F52464F5243454652414D454616
:10084000524F4E544652554954474C415353474CCE
:100850004F5645475241494E4752415353475245DF
:100860004154475245454E47524F555047554944CC
:100870004548415050594845415254484F525345BC
:10088000484F5553454A454C4C594A4557454C4AA3
:10089000554447454B4E4946454C415547484C45C4
:1008A00056454C4C494748544C494D49544C494E87
:1008B000454E4C4F4F53454D415443484D4554418F
:1008C0004C4D495845444D4F4E45594D4F4E544857
:1008D0004D4F5554484D555349434E455256454E3C
:1008E000494748544E4F4953454E4F5254484F463E
:1008F0004645524F524445524F544845524F574E29
:1009000045525041494E5450415045525041535424
:10091000455045414345504C414345504C414E455F
:10092000504C414E54504C415445504F494E5450F8
:100930004F57455250524943455052494E545052D8
:100940004F5345515549434B5155494554515549CC
:10095000544552414E4745524541445952494748F2
:10096000545249564552524F554748524F554E449E
:100970005343414C45534352455753454E534553BA
:10098000484144455348414B455348414D455348E0
:1009900041525053484545505348454C46534849A9
:1009A000525453484F434B53484F5254534B495260
:1009B00054534C454550534C4F5045534D414C4C6E
:1009C000534D415348534D454C4C534D494C455361
:1009D0004D4F4B45534E414B45534F4C4944534F5C
:1009E000554E44534F55544853504143455350413D
:1009F000444553504F4F4E53544147455354414D36
:100A0000505354415254535445414D535445454C11
:100A1000535449434B53544946465354494C4C5301
:100A2000544F4E4553544F524553544F52595355BA
:100A300047415253574545545441424C4554415304
:100A400054455448455245544849434B5448494EEF
:100A5000475448554D4254494748545449524544D7
:100A6000544F4F5448544F554348545241444554B1
:100A70005241494E545249434B5457495354554E91
:100A800044455256414C55455645525345564F499B
:100A900043455741535445574154434857415445A2
:100AA00052574845454C57484552455748494C458B
:100AB0005748495445574F4D414E574F554E44574F
:100AC000524F4E47594F554E474143524F53534152
:100AD0004C4D4F5354414D4F554E54414E494D414D
:100AE0004C414E5357455241545441434B4241535C
:100AF0004B45544245464F524542454C4945464276
:100B00004954544552424F54544C454252414E432D
:100B1000484252454154484252494447454252494D
:100B200047485442524F4B454E4255434B45544221
:100B30005554544552425554544F4E43414D4552DD
:100B40004143414E5641534348414E43454348413A
:100B50004E4745434845455345434855524348430E
:100B60004952434C45434F4C4C4152434F4C4F55D7
:100B700052434F4D4D4F4E434F50504552434F54AB
:100B8000544F4E43524544495444414D41474544D6
:100B9000414E4745524445475245454445534947D0
:100BA0004E44455349524544455441494C445241B1
:100BB000574552454646454354454E47494E45459F
:100BC0004E4F55474845585045525446414D494C63
:100BD00059464154484552464545424C4546454D87
:100BE000414C4546494E474552464C494748544674
:100BF0004C4F574552465249454E4446555455521E
:100C00004547415244454E47524F57544848414D3D
:100C10004D4552484F4C4C4F5748554D4F555249F2
:100C20004E5345435449534C414E444B4554544C08
:100C3000454C45545445524C49515549444C4954EE
:100C4000544C454C4956494E474D41524B45544DE5
:100C5000454D4F52594D4944444C454D494E5554CC
:100C6000454D4F4E4B45594D4F544845524D4F54AD
:100C7000494F4E4D5553434C454E4152524F574E9E
:100C80004154494F4E4E4545444C454E4F524D41BF
:100C90004C4E554D4245524F46464943454F5241B1
:100CA0004E474550415243454C50454E43494C50A8
:100CB0004552534F4E504C45415345504C4F55476C
:100CC00048504F434B4554504F49534F4E504F4C53
:100CD000495348504F52544552504F5441544F502D
:100CE0004F57444552505249534F4E50524F464928
:100CF000545055424C4943524541534F4E5245433F
:100D00004F5244524547524554524557415244521E
:100D1000485954484D5343484F4F4C5345434F4E09
:100D20004453454352455453494C56455253494DFB
:100D3000504C45534953544552534D4F4F544853CB
:100D40004E45455A4553504F4E4745535052494ED4
:100D500047535155415245535449434B59535449B4
:100D60005443485354524545545354524F4E47539D
:100D7000554444454E53554D4D4552535953544592
:100D80004D5448454F525954485245414454485295
:100D90004F41545449434B4554544F4E4755455683
:100DA000455353454C57454947485457494E444F7E
:100DB0005757494E54455259454C4C4F5741434360
:100DC0004F554E54414741494E5354415454454D5B
:100DD000505442414C414E43454245434155534591
:100DE0004245545745454E424F494C494E47425261
:100DF0004F544845524345525441494E434F4D4646
:100E00004F5254434F4D50414E59434F4D504C4516
:100E100058434F4E54524F4C434F554E54525943E2
:100E2000555252454E544355525441494E435553E1
:100E300048494F4E4449534541534544495347550A
:100E4000535444524956494E47454C4153544943E3
:100E50004558414D504C45464541544845524645FC
:100E6000454C494E4746455254494C4546494354E2
:100E7000494F4E464F4F4C495348464F52574152A7
:100E80004447454E4552414C48414E47494E4748DC
:100E90004152424F55524841524D4F4E594845419B
:100EA0004C54485948454152494E47484953544F7C
:100EB0005259494D50554C53454A4F55524E45593C
:100EC0004C4541544845524C4942524152594D417A
:100ED0004348494E454D414E414745524D4152527E
:100EE0004945444D4541535552454D45444943417B
:100EF0004C4D454554494E474D4F524E494E474E35
:100F000041545552414C4F50494E494F4E50415912
:100F10004D454E5450494354555245505245534502
:100F20004E545052495641544550524F43455353E5
:100F300050524F4455434550524F544553545055C9
:100F400052504F53455155414C49545952454144D3
:100F5000494E4752454345495054524547554C41E7
:100F6000525245515545535452455350454354539D
:100F70004349454E4345534552494F5553534552B6
:100F800056414E54534F4349455459535045434994
:100F9000414C53544154494F4E53544F4D41434893
:100FA000535452414E474553545245544348535568
:100FB00050504F525454484F554748545448524F3C
:100FC0005547485448554E44455254524F55424C4B
:100FD0004556494F4C454E5457414954494E475741
:100FE00045415448455257484953544C4557524936
:100FF00054494E47414E44524F4944414444495458
:10100000494F4E415050524F56414C415247554D19
:10101000454E544255494C44494E47425553494E1A
:1010200045535343415252494147454348454D4931
:1010300043414C434F4D504C45544544415547481E
:101040005445524445434953494F4E44454C494306
:1010500041544544495354414E43454449564953EC
:10106000494F4E454C4543545249434558434841E6
:101070004E47454652455155454E54484F535049A9
:1010800054414C494E435245415345494E445553B2
:10109000545259494E5445524553544C414E47556C
:1010A0004147454C4541524E494E474D41544552AA
:1010B00049414C4D494C49544152594D4F554E545C
:1010C00041494E4F50504F534954454F524E414D58
:1010D000454E54504152414C4C454C50485953494F
:1010E00043414C504C454153555245504F53495440
:1010F000494F4E504F535349424C4550524F424135
:10110000424C4550524F50455254595155455354F5
:10111000494F4E5245414354494F4E52454C41541C
:10112000494F4E52454C4947494F4E5343495353FB
:101130004F5253534550415241544553544F434BE2
:10114000494E4753545241494748545355525052BF
:101150004953455445414348494E4754454E4445FB
:101160004E4359544F474554484552544F4D4F52A2
:10117000524F5754524F5553455253554D42524575
:101180004C4C414245524E4841524400001059F1E6
:10119000C07E52322575572D25754C00010204087A
:1011A0001020408000000000003E5B4F5B3E3E6B25
:1011B0004F6B3E1C3E7C3E1C183C7E3C181C577DF1
:1011C000571C1C5E7F5E1C00183C1800FFE7C3E73D
:1011D000FF0018241800FFE7DBE7FF30483A060E4F
:1011E0002629792926407F050507407F05253F5A96
:1011F0003CE73C5A7F3E1C1C08081C1C3E7F142206
:101200007F22145F5F005F5F06097F017F006689B0
:10121000956A606060606094A2FFA29408047E04F6
:101220000810207E201008082A1C08081C2A08081C
:101230001E101010100C1E0C1E0C30383E383006DC
:101240000E3E0E06000000000000005F00000007D8
:10125000000700147F147F14242A7F2A1223130806
:10126000646236495620500008070300001C2241E2
:10127000000041221C002A1C7F1C2A08083E080886
:101280000080703000080808080800006060002036
:10129000100804023E5149453E00427F4000724919
:1012A0004949462141494D331814127F10274545BD
:1012B00045393C4A494931412111090736494949D3
:1012C00036464949291E0000140000004034000041
:1012D00000081422411414141414004122140802AA
:1012E000015909063E415D594E7C1211127C7F491D
:1012F0004949363E414141227F4141413E7F494972
:1013000049417F090909013E414151737F0808089D
:101310007F00417F41002040413F017F081422416E
:101320007F404040407F021C027F7F0408107F3EC8
:101330004141413E7F090909063E4151215E7F0935
:10134000192946264949493203017F01033F40409C
:10135000403F1F2040201F3F4038403F6314081487
:101360006303047804036159494D43007F414141BF
:101370000204081020004141417F040201020440A0
:1013800040404040000307080020545478407F2824
:101390004444383844444428384444287F3854541A
:1013A000541800087E090218A4A49C787F0804043D
:1013B0007800447D40002040403D007F10284400DC
:1013C00000417F40007C047804787C08040478386D
:1013D00044444438FC1824241818242418FC7C089D
:1013E000040408485454542404043F44243C40401A
:1013F000207C1C2040201C3C4030403C44281028CD
:10140000444C9090907C4464544C44000836410015
:101410000000770000004136080002010204023C8F
:101420002623263C1EA1A161123A4040207A38545E
:1014300054555921555579412154547841215554D9
:10144000784020545579400C1E527212395555552A
:1014500059395454545939555454580000457C4115
:101460000002457D420001457C40F0292429F0F02E
:10147000282528F07C545545002054547C547C0A7F
:10148000097F4932494949323248484832324A484C
:1014900048303A4141217A3A42402078009DA0A04C
:1014A0007D39444444393D4040403D3C24FF2424A0
:1014B000487E4943662B2FFC2F2BFF0929F620C0BD
:1014C000887E090320545479410000447D4130480E
:1014D000484A32384040227A007A0A0A727D0D1951
:1014E000317D2629292F28262929292630484D40B3
:1014F00020380808080808080808382F10C8ACBAAF
:101500002F102834FA00007B000008142A1422222D
:10151000142A14089500220095AA005500AAAA557D
:10152000AA55AA000000FF00101010FF00141414A8
:10153000FF001010FF00FF1010F010F0141414FC46
:10154000001414F700FF0000FF00FF1414F404FC63
:10155000141417101F10101F101F1414141F001044
:101560001010F0000000001F101010101F101010BD
:1015700010F010000000FF101010101010101010CC
:10158000FF10000000FF140000FF00FF00001F100C
:10159000170000FC04F414141710171414F404F4C6
:1015A0000000FF00F714141414141414F700F714B7
:1015B0001414171410101F101F141414F414101006
:1015C000F010F000001F101F0000001F14000000AA
:1015D000FC140000F010F01010FF10FF141414FFA2
:1015E000141010101F00000000F010FFFFFFFFFF9D
:1015F000F0F0F0F0F0FFFFFF0000000000FFFF0F31
:101600000F0F0F0F38444438447C2A2A3E147E02C0
:10161000020606027E027E02635549416338444455
:101620003C04407E201E2006027E020299A5E7A50A
:10163000991C2A492A1C4C7201724C304A4D4D307B
:101640003048784830BC625A463D3E494949007EA0
:101650000101017E2A2A2A2A2A44445F4444405137
:101660004A444040444A51400000FF0103E080FFEB
:10167000000008086B6B083612362436060F090F77
:1016800006000018180000001010003040FF010193
:10169000001F01011E00191D1712003C3C3C3C00BC
:1016A000000000009E1911241FBECFEFDAE0DEBF5C
:1016B000CDBF11E0A0E0B1E0E2EDFBE302C0059098
:1016C0000D92A234B107D9F726E0A2E4B1E001C03F
:1016D0001D92A131B207E1F71BE0C3E5DBE004C0D6
:1016E0002197FE010E94E11DC235D107C9F70E9472
:1016F00074150C94E71D0C940000FC01809194017A
:10170000811103C08FEF9FEF08959FB7F89482E097
:101710008093E9002091F20030E01216130614F4D1
:1017200021E030E02115310559F0289884E68093B6
:1017300093018091F10080838091F200882319F059
:101740009FBFC90108958BE68093E800F9CF2FB7BA
:10175000F89483E08093E9009091E800892F8072EB
:1017600095FF04C09091F20080E4891B2FBF08957B
:101770008091B10581110DC082E08093AD0584E0B8
:101780008093AE051092B0051092AF0581E0809372
:10179000B1058DEA95E00895CF93DF931F92CDB701
:1017A000DEB76983DC01ED91FC910280F381E02DCD
:1017B00041E050E0BE016F5F7F4F09950F90DF91D0
:1017C000CF91089583E08093E9008091F20088230F
:1017D00019F08AE38093E80008950E94A70B90E037
:1017E0000895CF93DF931F92CDB7DEB7FC018485B8
:1017F000958597FD05C02FEF3FEF358724870BC0F8
:10180000CE0101960E947D0B019719F4898190E029
:1018100002C08FEF9FEF0F90DF91CF9108950F934C
:101820001F93CF93DF931F92CDB7DEB78C01FC01DE
:101830008485958597FF0EC0CE0101960E947D0B91
:10184000019719F4298130E002C02FEF3FEFF80132
:1018500035872487F801848595850F90DF91CF9196
:101860001F910F910895FC018485958597FD0BC00C
:101870009FB7F89482E08093E9008091F2009FBFC7
:1018800090E0019608959FB7F89482E08093E90074
:101890008091F2009FBF90E008958F929F92AF9247
:1018A000BF92CF92DF92EF92FF920F931F93CF934D
:1018B000DF936C015B017A0180910D01882309F4AB
:1018C00058C080919401882309F453C080919201FB
:1018D00080FF05C08091E00082608093E000E70116
:1018E00010E00AEF83E0882E9AE3992E2097C1F149
:1018F0000E94A70B811107C00150D9F181E090E04F
:101900000E94D510F3CF282F30E0C217D3070CF474
:101910008C2F4FB7F8948092E9009091E80095FFE2
:101920001DC0282F30E0C21BD30BF501982F91501A
:1019300020F081918093F100FACFA20EB31E112303
:1019400019F09092E80009C08091E80085FD06C07A
:101950009092E80011E0209709F010E04FBFC6CF49
:101960001111C6CF5D9884E68093AC051E141F0448
:1019700044F081E090E0F6019383828380E090E080
:1019800001C0C701DF91CF911F910F91FF90EF90A0
:10199000DF90CF90BF90AF909F908F900895DF928F
:1019A000EF92FF920F931F93CF93DF93D82E8A016C
:1019B0007B01E40EF51EEB01CE15DF0571F0D7FEBD
:1019C00003C0FE01849101C088810E9439152196CF
:1019D0008111F2CF8FEF9FEF01C0C801DF91CF914E
:1019E0001F910F91FF90EF90DF9008950F931F9339
:1019F000CF93DF931F92CDB7DEB782E0898342E4B5
:101A000050E06EEA71E080E80E94CF0C0E94B80BB3
:101A1000DC0112960D911C9113970115110569F0C7
:101A2000D801ED91FC910280F381E02DBE016F5F42
:101A30007F4FC801099597FF07C089810F90DF91FB
:101A4000CF911F910F910895F80100851185E5CF81
:101A5000E5E9F1E0A0E0B8E000800EBC8111012CC6
:101A60001197A0FDFDCF0192B9F70DB408950F9322
:101A70001F93CF93DF938C01C0E0D0E0F801EC0F0F
:101A8000FD1F6491662371F0E0919505F091960534
:101A90000190F081E02D85E995E00995892B11F001
:101AA0002196ECCFCE01DF91CF911F910F91089538
:101AB0009C01240F311D1216130674F58038910510
:101AC0005CF5FC0197FF02C0E0E0F0E02138310551
:101AD00014F020E830E02E1BAB014770552781E061
:101AE00001C0880F4A95EAF777FF02C0695F7F4F10
:101AF00093E0759567959A95E1F77695762F662729
:101B000077956795E60FF71FEB56FE4F215020F0B3
:101B10009081982B9193FACF08955F926F927F9264
:101B20008F929F92AF92BF92CF92DF92EF92FF92ED
:101B30000F931F93CF93DF93EC018B019A01261B28
:101B4000370B37FF03C03195219531098EE590E0C1
:101B50008C1B9D0B97FF03C091958195910955248E
:101B60005394821793072CF0512C9EE5E92EF12C0B
:101B700008C07A019C2F8D2FE801092F182F4EE500
:101B800050E0EC16FD0654F4902F812F8A01492F66
:101B9000582F9C2F8D2FE701E92EF82E37016C1A54
:101BA0007D0A5A01A01AB10AB7FE03C0B194A194EC
:101BB000B108630177FE03C08FEFC81AD80AD59425
:101BC000C7940417150714F08FEF01C081E0882E29
:101BD000880F9908EC16FD06B4F021E0552019F0A5
:101BE000AE01B80102C0A801BE0189E995E00E94DA
:101BF0006011CA18DB08D7FE04C0080D191DC60CF9
:101C0000D71C2196E7CFDF91CF911F910F91FF90C5
:101C1000EF90DF90CF90BF90AF909F908F907F908C
:101C20006F905F90089520919F05282329F490914B
:101C30009E05982381E009F480E008951F920F9299
:101C40000FB60F9211248F939F938091E100909192
:101C5000E100937F9093E10083FF0FC01092E900B1
:101C600091E09093EB001092EC0092E39093ED00E2
:101C70001092940198E09093F00082FF20C093E0CE
:101C80009093E9009091F200992319F09AE39093D0
:101C9000E8009091AC05992339F09091AC059150F2
:101CA0009093AC05992389F190919301992339F090
:101CB00090919301915090939301992341F184FF66
:101CC00010C08091E2008E7E81608093E20080915E
:101CD000E1008F7E8093E100809192018E7E806191
:101CE00011C080FF16C08091E2008E7E80618093DB
:101CF000E2008091E1008E7E8093E100809192016C
:101D00008E7E81608093920104C05D9ACDCF289A27
:101D1000D6CF9F918F910F900FBE0F901F90189567
:101D20001F920F920FB60F921124CF92DF92EF9273
:101D3000FF920F931F932F933F934F935F936F9354
:101D40007F938F939F93AF93BF93EF93FF93CF9323
:101D5000DF93CDB7DEB76C97DEBFCDBF1092E90041
:101D60008091E80083FFBAC168E0CE0145960E94E9
:101D7000671582EF8093E8008D8987FF05C09091F9
:101D8000E80090FFFCCF03C09EEF9093E800982FEF
:101D9000907609F0C6C09E892F89188D91110CC0CC
:101DA000803829F4809191018093F10002C0109253
:101DB000F1001092F10047C1422F50E0512B9130B9
:101DC00051F4811140C14130510509F03CC180916D
:101DD00091018D7F0BC0933061F4811134C141308A
:101DE000510509F030C18091910182608093910189
:101DF0002AC1953041F48091E80080FFFCCF206833
:101E00002093E30020C1963009F05FC0EB8CFC8C7E
:101E10001092E90010928F0110928E01123091F50C
:101E200010928D0110928C010E94F60C99E0BE0177
:101E30006F5F7F4FDB01E92F1D92EA95E9F79983E8
:101E40001A8391E09E8390EA98879AEF9987209170
:101E50008E0130918F01275F3F4F3C832B838D8311
:101E60001092E90010928F0110928E01F0928D0174
:101E7000E0928C0149E050E080E00E94CF0C0E948B
:101E8000F60CE1C0F0928D01E0928C010E94B80B3B
:101E9000DC011296ED90FC901397E114F10409F423
:101EA000BFC0D701ED91FC910480F581E02DBE010A
:101EB0006B5E7F4FC7010995009719F00CF0C3C006
:101EC000C6C0F701E084F184E8CF973009F4BFC0C1
:101ED000983021F481E08093F100B5C0993009F089
:101EE000B2C0837009F0B3C0E5E1F1E081E021E028
:101EF00036E39081992361F08093E9002093EB0011
:101F000091919093EC003093ED008F5F873089F7CB
:101F10008EE78093EA001092EA008F898093940103
:101F200092C08B8D9C8D1092E90010928F011092BF
:101F30008E0190938D0180938C01898D811155C004
:101F40008E899D89913A59F4813209F080C047E029
:101F500050E066E071E080E00E94CF0C74C09132E6
:101F600009F075C0833289F4888D90E0982F882716
:101F70002F89822BA0E0B0E08093020190930301AF
:101F8000A0930401B09305015EC0803269F4809192
:101F9000E80082FFFCCF67E086E091E00E946715D1
:101FA0008BEF8093E80006C0823209F04CC08F8925
:101FB00080930D018091060190910701A091080185
:101FC000B0910901803B9440A105B10509F083C09F
:101FD00080910D0180FD7FC088E780939001809102
:101FE00064008F7D809364002EC00E94B80BDC01DA
:101FF00012960D911C9113970115110541F1D8010D
:10200000ED91FC910190F081E02DBE016B5E7F4F60
:10201000C8010995811117C0F80100851185ECCF21
:10202000113009F44EC0133091F48F89882309F4DC
:1020300045C0823081F440E867E082E192E00E948E
:102040006119882321F08EEF8093E80047C081E278
:102050008093EB0043C0813029F440E86BE086E0D8
:1020600092E0EDCF833099F70E94B80BDC01129615
:10207000ED90FC9013978E010F5F1F4F6801E114E4
:10208000F10479F0D701ED91FC910680F781E02D04
:10209000B801C7010995080F111DF701E084F1840B
:1020A000EECFD8011C92F60101900020E9F731979C
:1020B000BF016C197D0940E0C601C1CF60EF71E03E
:1020C00002C064EF71E06115710509F2FB014491F2
:1020D00050E080E841CF10929001B5CF6C960FB6DA
:1020E000F894DEBF0FBECDBFDF91CF91FF91EF918E
:1020F000BF91AF919F918F917F916F915F914F9120
:102100003F912F911F910F91FF90EF90DF90CF9013
:102110000F900FBE0F901F901895CF92DF92EF9205
:10212000FF920F931F93CF93DF936C017A018B0182
:10213000C0E0D0E0CE15DF0589F0D8016D918D01AA
:10214000D601ED91FC910190F081E02DC601099539
:10215000892B11F47E0102C02196ECCFC701DF91DB
:10216000CF911F910F91FF90EF90DF90CF90089546
:10217000ADE0B6E02FB7F8947D918D919C9166B556
:102180002FBFA89B05C06F3F18F47F5F8F4F9F4FF5
:1021900022E0660F771F881F991F2A95D1F70895AF
:1021A0000895089580E090E00895FC010E94B81021
:1021B000319728F068517C4F8F4F9F4FF9CFAB017B
:1021C000FC010E94B810641775078E079F07C8F3BB
:1021D00008950F930FB70F931F9211248F939F931E
:1021E000EF93FF93E2E4F1E080910C0691E08D5FC4
:1021F0008D3710F08D57939580930C068081890F51
:1022000080839181911D91830281011D02838381CD
:10221000811D838309270F700927029500930B0600
:102220003BD08111009309068C3A11F08C35A1F452
:1022300000910A06901B963088F085538093000821
:1022400080930108289828D0F1F788E198E08093DE
:10225000600090936000FFCF90930A0680919001F8
:10226000815020F08093900187E741F3EDE0F6E0A4
:102270008081918101968083918382819381811DE8
:10228000911D82839383FF91EF919F918F911F9076
:102290000F910FBF0F9118958FB18095807F669B2E
:1022A00088601C9B846008952D9A08950C94D51025
:1022B0000E944C11089581E083BF889513BE089554
:1022C00060387105D0F440345105B8F4ECE9F1E11F
:1022D00080E1849FD001A0781124A60F4770E40FFD
:1022E000F11D8491AB56BE4F222319F06C91862BC1
:1022F00003C080956C9186238C9308952F923F9212
:102300004F925F926F927F928F929F92AF92BF9205
:10231000CF92DF92EF92FF920F931F93CF93DF93B1
:10232000CDB7DEB729970FB6F894DEBF0FBECDBF8D
:10233000FC016A3069F425898189928938E0239FFC
:10234000800D911D1124928B818B108A1786AAC053
:102350006D3009F4A7C099878887F5883488238869
:10236000618872880785108900381105C4F0A88536
:10237000B98555962C915597422F50E01F968D9117
:102380009C915097B6E02B9F800D911D1124E885FC
:10239000F985908B8787268921116EC083C0F0E470
:1023A0006F16710424F7C80125E0F29E800D911D7F
:1023B000112418161906DCF68F2D90E09C838B8370
:1023C000C301A8E0FA9E800D911D1124181619066C
:1023D00074F6B5E06B9FB0011124FB01EC55FE4E85
:1023E000FA83E98330E08885998504969E838D83FE
:1023F000E981FA81E490353009F4E12C430188E069
:10240000482EE0FC02C0532C01C0522C51100BC0CE
:10241000321009C0E6944A948B819C81880E991EE3
:102420004110EFCF1BC068018C2D801B8F1590F7DA
:1024300054018A2D88198F1568F4252DA501B60140
:102440008D819E813F830E9460119FEFA91AB90A76
:102450003F81EFCFAFEFCA1ADA0AE6CF3F5FEB81D9
:10246000FC810E0F1F1F89819A8101969A838983AF
:10247000363009F0BDCF7BCF6AEF64039001659FD2
:10248000300D112420583F4F281739075CF4A885D8
:10249000B985ED91FC9111970190F081E02D6AE0F2
:1024A000CD01099581E090E029960FB6F894DEBF42
:1024B0000FBECDBFDF91CF911F910F91FF90EF9095
:1024C000DF90CF90BF90AF909F908F907F906F9054
:1024D0005F904F903F902F900895CF92DF92EF92B0
:1024E000FF920F931F93CF93DF93F12CE12C05E61E
:1024F00011E0CCE0D0E0F80101900020E9F731973D
:10250000E556F1408F2D90E08E179F07B0F5FC0146
:10251000EB59FE4F6081E62FF0E0E35DFE4F8081D6
:10252000CE2CD12C813069F4D092A505C092A4059F
:10253000D093A705C093A60585E995E00E947E117A
:1025400018C080918901833069F4D092A505C092AA
:10255000A405D093A705C093A605605E85E995E024
:102560000E947E1147E065E170E0C60101970E947C
:10257000580D89E0E80EF394BECFDF91CF911F9103
:102580000F91FF90EF90DF90CF9008952F923F92A0
:102590004F925F926F927F928F929F92AF92BF9273
:1025A000CF92DF92EF92FF920F931F93CF93DF931F
:1025B00008E510E0CDE3D0E021E0AE01B80189E903
:1025C00095E00E9460112196C034D105A9F70F5FF4
:1025D0001F4F0038110571F701E710E0C0E0D0E0AF
:1025E00021E0AE01B80189E995E00E9460112196D1
:1025F000C034D105A9F70F5F1F4F0437110571F7DC
:102600000DE510E0C0E0D0E021E0AE01B80189E9BD
:1026100095E00E9460112196C330D105A9F70F5FA4
:102620001F4F0137110571F70DE510E0C0E0D0E054
:1026300021E0AE01B80189E995E00E946011219680
:10264000CA30D105A9F70F5F1F4F0036110571F78A
:1026500080916401811106C080916401823008F08C
:10266000A3C0B0C021E044E150E06EE570E089E92C
:1026700095E00E94601121E04AE050E06EE570E0D4
:1026800089E995E00E94601121E04FE050E063E6A7
:1026900070E089E995E00E94601121E04FE050E090
:1026A00069E570E089E995E00E9460114424439453
:1026B000512C00E010E0C5E0D0E036EF632E772427
:1026C0007A944CEFE42EFF24FA945EE5252E312C0B
:1026D0000F5F1F4F82E0480E511CE40CF51C4801AF
:1026E0008EE5880E911C21E06E018FE0C80ED11C92
:1026F000A601B40189E995E00E9460115101A01A78
:10270000B10A21E0A601B50189E995E00E946011B6
:1027100021E08FE0C82ED12CCC1ADD0AA601B4012D
:1027200089E995E00E94601121E0A601B50189E9DF
:1027300095E00E94601168018FE0C80ED11C21E075
:10274000A6015E018EE5A80EB11CB50189E995E0F0
:102750000E94601121E0A6016101CC1ADD0AB601D8
:1027600089E995E00E9460119FE0892E912C801AE2
:10277000910A21E0A401B50189E995E00E94601168
:1027800021E0A401B60189E995E00E9460110C17CF
:102790001D070CF061CFF7FC9BCF219782E0680EFC
:1027A000711CE60CF71C94CFC4E1D0E021E0AE012F
:1027B0006EE570E089E995E00E9460112196C832CB
:1027C000D105A1F780916401833040F049E150E0E8
:1027D00066E170E083E590E00E948D0D80916401D8
:1027E000843040F049E150E066E170E089E690E035
:1027F0000E948D0D80916401853040F048E250E0E8
:1028000064E370E083E590E00E948D0D80916401A7
:102810008630D0F048E250E064E370E089E690E072
:10282000DF91CF911F910F91FF90EF90DF90CF90AC
:10283000BF90AF909F908F907F906F905F904F90E0
:102840003F902F900C948D0DDF91CF911F910F91A0
:10285000FF90EF90DF90CF90BF90AF909F908F90C0
:102860007F906F905F904F903F902F900895CF93FF
:10287000DF93809100011F928F93809101011F923D
:102880008F9384E991E19F938F93C6E4D1E0DF9326
:10289000CF930E94701AFE0101900020E9F7319752
:1028A000E654F140A5E9B5E086E08E9F90018F9F48
:1028B000300D11248EE490E0821B930B50969C9374
:1028C0008E931F9752961C921E9251978DB79EB76A
:1028D00008960FB6F8949EBF0FBE8DBF09900020DA
:1028E000E9F72197AE014654514066E471E0CD010D
:1028F000DF91CF910C948D10CF92DF92EF92FF92E7
:10290000CF932FB7F8946091420170914301809169
:102910004401909145012FBF611571058105910515
:1029200011F00E94671A8CE1C82E83E0D82EE12CAA
:10293000F12C0E94621AA70196010E94271DAB018B
:10294000E0910E01F0910F016E177F0791F37093E4
:102950000F0160930E0182E090E060E070E0C82F0C
:10296000FC01E557FE4E249130E04217530788F5ED
:1029700029E0E5E6F1E0DF011D922A95E9F7849F61
:102980009001859F300D949F300D1124F901E60FC1
:10299000F71FE65EFD4F25E631E0D90184918D9366
:1029A00031968A2F821B8C17C8F3109288011092DF
:1029B00064018AE1EEE6F1E0DF011D928A95E9F714
:1029C00081E080938901CF91FF90EF90DF90CF90CD
:1029D0000895421B530B289FF001299FF00D389F4B
:1029E000F00D11246E0F7F1F01968930910509F0BB
:1029F000B6CFDBCFEF92FF920F931F93CF93DF936E
:102A00001F92CDB7DEB77C01FC0100811181C801A6
:102A100069830E94111D6981681719F0C8010E941D
:102A2000191DC7010F90DF91CF911F910F91FF905A
:102A3000EF9008951F93CF93DF9300D0CDB7DEB70B
:102A4000162F2AE530E03A832983682FCE010196BC
:102A50000E94FA148BE590E09A838983612FCE015E
:102A600001960E94FA140F900F90DF91CF911F9161
:102A7000089540918E0150918F0120918C013091E9
:102A80008D0142175307B4F49091E8009570E1F37B
:102A90009091E80092FD19C08093F10080918E0121
:102AA00090918F0101968F739927892B19F48EEFDE
:102AB0008093E80080918E0190918F010196909310
:102AC0008F0180938E0181E0089580E00895615028
:102AD00030F02091F100FC0120830196F8CF289876
:102AE00084E680939301089500D01F92CDB7DEB79E
:102AF000789484B5826084BD816084BD85B5826030
:102B000085BD816085BD81E080936E00E1E8F0E0E5
:102B1000108282E0808381608083E0E88081816030
:102B20008083E1E980818260808381608083E0E945
:102B3000808181608083E1EC808184608083826019
:102B4000808381608083E3EC808181608083E0EC1E
:102B5000808182608083E2EC808181608083EAE70B
:102B600080818460808382608083816080838068CC
:102B700080831092940110929101109292018091A1
:102B8000D70081608093D70080EA8093D80089B510
:102B9000806189BD89B5826089BD09B400FEFDCF21
:102BA00081E090E00E94D5108091D8008F7C8061F8
:102BB0008093D8008091E000807F8093E000809136
:102BC000E1008E7E8093E1008DE08093E200559AD3
:102BD000209A81EC80937C0081EF85B987EE84B9DF
:102BE00084E38BB984EF8AB9769A6E9880EF81BBC3
:102BF00010BA80E58CBD81E08DBD85E090E00E943B
:102C000056115F9902C05F9AF8CF5C98ECE5F1E04D
:102C10009DE085918EBD00000DB407FEFDCF8EB501
:102C20009A95B9F75C9A81E88093640081E080937B
:102C300065000E94280D0E94581187FF0FC05C9804
:102C400085EA8EBD00000DB407FEFDCF8EB55C9AFF
:102C50002E982F982D980E945B11FDCF02E010E076
:102C60000E94581182FF42C02D980E94581184780A
:102C70008438C9F00E9458118471843191F50E9402
:102C8000541188EC90E00E9456112E981A83098303
:102C900060E0CE0101960E94FA1484EF91E00E9458
:102CA00056112E9A19C00E94541188EC90E00E948F
:102CB00056112F981A8309836FEFCE0101960E9457
:102CC000FA1484EF91E00E9456112F9A0E94581135
:102CD00084788438D9F3CECF0E945811847184311E
:102CE000D9F388EC90E00E945611BACF0E9454119B
:102CF00082E090E00E94111D882331F03E9A3F9AB5
:102D000081E080938A0104C010928A013E983F9826
:102D100081E090E00E94111D82FB772470F881E031
:102D200090E00E94111D81FF8EC071102E9800EF5F
:102D30001FEF78E0A72EB12C0E94581186FF04C027
:102D40002E9A2F9A2D9A7FC0772029F004301105F2
:102D500011F42E9A2F9881E00E94280D980117FFF8
:102D600004C022273327201B310B27703327C801CB
:102D700017FD079663E0959587956A95E1F717FF2C
:102D800005C00197A501421B530B9A017C01F694E3
:102D9000FE2CEE24F794E79460E070E02501421ADF
:102DA000530AD701A058BF4F4D018F3FBFEF9B077C
:102DB00044F40196685A7F4F7401603B710589F7AE
:102DC00021C0D701A75DBD4F40E050E08F3FEFEF3E
:102DD0009E0709F458C2FA01E60FF71FE455FF4FAA
:102DE000E4916D01C818D908CE0CDF1CF0E01F017A
:102DF000022E01C0220C0A94EAF7F6016080262810
:102E0000208241C280E00E94280D8FE090E00E9465
:102E100056110F5F1F4F0931110509F08DCF772033
:102E200011F02F9A2D9880E991E00E9456110E948E
:102E30005411E0919905F0919A050190F081E02DEF
:102E400089E995E0099582E390E00E9456110E947D
:102E500058118111F8CF81E28093A00588E590E0B8
:102E60000E94111D182F89E590E00E94111D183451
:102E700011F48D34B1F088E590E09A83898368E499
:102E8000CE0101960E94FA1489E590E09A83898325
:102E90006DE4CE0101960E94FA1460E080E00E9489
:102EA0001A158AE590E00E94111D809301018BE5BF
:102EB00090E00E94111D809300013AE0A32EB12CF6
:102EC00046E4E42E41E0F42E90E3292E312C23E257
:102ED000C22ED12C909142018091A105F92FF81BAF
:102EE0008F2F1091A205112329F0F093A3051092C2
:102EF000A205E4C12091A005F21738F48F5F821774
:102F000008F0DCC10E945B11D9C121E02093A20529
:102F10009093A10580919C0590919D0501969093B9
:102F20009D0580939C0580919E0580939F050E943E
:102F3000581180939E05912FE5E9F1E091119FEFE3
:102F40008FEF91939193919391938150D0F7109239
:102F5000A7051092A6051092A5051092A4058091D0
:102F60008901813009F470C038F0823009F454C10D
:102F7000833009F467C17DC188E00E94130E882365
:102F800019F00E947C1475C180919C0590919D055B
:102F9000B5010E94CD1D892B51F4809164018630CA
:102FA00020F48F5F8093640102C0109264014AE0B4
:102FB00050E05093A7054093A6058CE891E00E944D
:102FC000370D4DE263E170E080E090E00E94580D23
:102FD0001092A5051092A40586E190E09093A705B4
:102FE0008093A6058FE791E00E94370D8091000144
:102FF0001F928F93809101011F928F93A9E6B1E0F8
:10300000BF93AF93FF92EF920E94701A1092A505A2
:103010001092A4053092A7052092A6050FB6F89449
:10302000DEBF0FBECDBFF70101900020E9F7319759
:10303000AF014654514066E471E085E995E00E9495
:103040008D100E94C61215C180E40E94130E8823C1
:1030500051F080918801893119F41092880103C0E0
:103060008F5F8093880180E20E94130E882349F0CD
:1030700080918801811102C089E101C08150809353
:10308000880180E80E94130E882339F0809188011E
:10309000893018F089508093880180E10E94130ED6
:1030A000882339F080918801813118F4875F8093FB
:1030B000880188E00E94130E882309F453C02091F0
:1030C0008801E22FF0E0E259FE4F808181114AC071
:1030D00051E050832F5BE5E6F1E001900020E9F735
:1030E0003197CF018556914030E010E061E0432FE9
:1030F00050E04817590798F4FA01EB59FE4F408108
:10310000E42F042E000CFF0BE35DFE4F50815111A4
:1031100001C060E0421301C011E03F5FE8CF6623C9
:1031200061F082E080938901809101018F5F80933B
:103130000101609100010E941A15111113C08091C4
:1031400064018F5F80936401863061F483E0809333
:103150008901609100016F5F60930001809101011E
:103160000E941A1580919C0590919D05B5010E94C1
:10317000CD1D892B31F480918B0191E0981B9093A8
:103180008B010E9437140E94C6120E946D128EE6B7
:10319000882E81E0982E10E023E12B8300E0802F21
:1031A00069E00E94C11D911105C05B81545F5B8382
:1031B00010E001C0175F809188012B81422E512CB5
:1031C000612E712C80130FC080918B01882359F0E0
:1031D000B201685F7F4F603471052CF447E0C30192
:1031E00001970E94580D7092A5056092A405509217
:1031F000A7054092A605D4018D914D01811102C011
:1032000061E401C061E6600F85E995E00E947E11EE
:103210000F5F0A3121F62DC088E00E94130E811144
:10322000B0CE0E9437140E94C6120E946D121092F6
:10323000A5051092A405D092A705C092A60585E920
:1032400091E015C088E00E94130E81119ACE0E9471
:1032500037140E94C6120E946D121092A50510929A
:10326000A405D092A705C092A60581EA91E00E942C
:10327000370D80E00E94280DE0E0F0E0309709F47F
:1032800029CE099521CE2115310581F0FA01E60FED
:10329000F71FE455FF4FE491F0E0042C02C0F595D0
:1032A000E7950A94E2F7DC90ED29EC934F5F5F4FCE
:1032B00011964835510509F089CD7BCD0E945B11EF
:1032C000DBCFCF92DF92EF92FF920F931F93CF93BA
:1032D000DF931F92CDB7DEB7182F062FE42E862F6F
:1032E000880F8E5F99830E94391583E00E943915FB
:1032F000F12EC12E9981D92E8C2D8F19801798F41B
:10330000F601E7FE02C0849101C080810E94391558
:10331000182F80E00E9439158123FFEFCF1ADF0AB2
:103320008111EACF01C081E00F90DF91CF911F9111
:103330000F91FF90EF90DF90CF900895E9EBF5E0CB
:103340001382128288EE93E0A0E0B0E0848395833C
:10335000A683B7838FE191E0918380838FEF9FEF06
:1033600095878487E5E9F5E013821282118612863B
:1033700080E1838710861782158681E391E091832F
:1033800080838FE391E095838483108A1786128A65
:10339000118A81E0838B148A858B168A08950F9396
:1033A0001F93CF93DF938C0181E090E00E94111D69
:1033B00080FF32C08AE090E00E94111D9FEF980FBD
:1033C0009E3F50F522E330E0D80150963C932E9377
:1033D0001F9728E330E052963C932E935197CBE011
:1033E000D0E0D801ED91FC910190F081E02D682FA3
:1033F000C8010995CE010E94111D2196C131D10548
:1034000081F780E00E94280D88EE93E0DF91CF9154
:103410001F910F910C945611DF91CF911F910F9135
:10342000089504970C94CF198F929F92AF92BF92F8
:10343000CF92DF92EF92FF92CF93DF93EC016881FE
:1034400079818A819B81611571058105910521F43E
:1034500064E279ED8BE597E02DE133EF41E050E058
:103460000E94271D49015A019B01AC01A7EAB1E462
:103470000E94461D6B017C01ACEEB4EFA5019401E6
:103480000E94541DDC01CB018C0D9D1DAE1DBF1D86
:10349000B7FF03C00197A109B04888839983AA8325
:1034A000BB83BC01CD019F77DF91CF91FF90EF905F
:1034B000DF90CF90BF90AF909F908F9008950E9423
:1034C000141A089580E191E00E94141A08956093FF
:1034D00010017093110180931201909313010895CC
:1034E000AEE0B0E0E6E7FAE10C94671D0D891E89B5
:1034F0008EE08C831A8309838FEF9FE79E838D83F1
:10350000AE01475E5F4F6F89788DCE0101960E94B4
:10351000931A2F813885F801E20FF31F10822E963F
:10352000E4E00C94831DACE0B0E0E9E9FAE10C942E
:10353000591D7C016B018A01FC011782168283816F
:1035400081FFBDC1CE0101964C01F7019381F601C7
:1035500093FD859193FF81916F01882309F4ABC19D
:10356000853239F493FD859193FF81916F01853206
:1035700029F4B70190E00E947B1CE7CF512C312C3D
:1035800020E02032A0F48B3269F030F4803259F020
:10359000833269F420612CC08D3239F0803339F4E4
:1035A000216026C02260246023C0286021C027FD3E
:1035B00027C030ED380F3A3078F426FF06C0FAE025
:1035C0005F9E300D1124532E13C08AE0389E300DBB
:1035D0001124332E20620CC08E3221F426FD6BC1E3
:1035E000206406C08C3611F4206802C0883641F48D
:1035F000F60193FD859193FF81916F018111C1CFF8
:10360000982F9F7D9554933028F40C5F1F4FFFE354
:10361000F9830DC0833631F0833771F0833509F0BB
:103620005BC022C0F801808189830E5F1F4F442454
:103630004394512C540115C03801F2E06F0E711CF7
:10364000F801A080B18026FF03C0652D70E002C0A4
:103650006FEF7FEFC5012C870E94701C2C01830146
:103660002C852F77222E17C03801F2E06F0E711CC7
:10367000F801A080B18026FF03C0652D70E002C074
:103680006FEF7FEFC5012C870E94651C2C012C85F4
:103690002068222E830123FC1BC0832D90E0481656
:1036A0005906B0F4B70180E290E00E947B1C3A9486
:1036B000F4CFF50127FC859127FE81915F01B701C9
:1036C00090E00E947B1C31103A94F1E04F1A5108AF
:1036D0004114510471F7E5C0843611F0893639F58B
:1036E000F80127FF07C060817181828193810C5F9F
:1036F0001F4F08C060817181072E000C880B990B49
:103700000E5F1F4F2F76722E97FF09C09095809500
:10371000709561957F4F8F4F9F4F2068722E2AE0E2
:1037200030E0A4010E94B31CA82EA81844C085371D
:1037300029F42F7EB22E2AE030E025C0F22FF97F47
:10374000BF2E8F36C1F018F4883579F0B4C08037B9
:1037500019F0883721F0AFC02F2F2061B22EB4FEB0
:103760000DC08B2D8460B82E09C024FF0AC09F2F86
:103770009660B92E06C028E030E005C020E130E0B8
:1037800002C020E132E0F801B7FE07C0608171811C
:10379000828193810C5F1F4F06C06081718180E040
:1037A00090E00E5F1F4FA4010E94B31CA82EA81822
:1037B000FB2DFF777F2E76FE0BC0372D3E7FA514A5
:1037C00050F474FE0AC072FC08C0372D3E7E05C05E
:1037D000BA2C372D03C0BA2C01C0B52C34FF0DC054
:1037E000FE01EA0DF11D8081803311F4397E09C09C
:1037F00032FF06C0B394B39404C0832F867809F0D7
:10380000B39433FD13C030FF06C05A2CB31418F420
:10381000530C5B18B32CB31468F4B70180E290E04A
:103820003C870E947B1CB3943C85F5CFB31410F405
:103830003B1801C0312C34FF12C0B70180E390E087
:103840003C870E947B1C3C8532FF17C031FD03C0C2
:1038500088E790E002C088E590E0B7010CC0832FB4
:10386000867859F031FF02C08BE201C080E237FD5B
:103870008DE2B70190E00E947B1CA51438F4B701DB
:1038800080E390E00E947B1C5A94F7CFAA94F40145
:10389000EA0DF11D8081B70190E00E947B1CA11010
:1038A000F5CF332009F451CEB70180E290E00E94B9
:1038B0007B1C3A94F6CFF7018681978102C08FEF87
:1038C0009FEF2C96E2E10C94751DFC010590615070
:1038D00070400110D8F7809590958E0F9F1F089526
:1038E000FC016150704001900110D8F780959095CF
:1038F0008E0F9F1F08950F931F93CF93DF93FB01AC
:10390000238121FD03C08FEF9FEF28C022FF16C047
:1039100046815781248135814217530744F4A081A1
:10392000B1819D012F5F3F4F318320838C9326818E
:1039300037812F5F3F4F3783268310C0EB01092F5C
:10394000182F0084F185E02D0995892BE1F68E81F1
:103950009F8101969F838E83812F902FDF91CF913E
:103960001F910F910895FA01AA27283051F12031B3
:1039700081F1E8946F936E7F6E5F7F4F8F4F9F4F03
:10398000AF4FB1E03ED0B4E03CD0670F781F891F45
:103990009A1FA11D680F791F8A1F911DA11D6A0F13
:1039A000711D811D911DA11D20D009F468943F91C6
:1039B0002AE0269F11243019305D3193DEF6CF01C5
:1039C0000895462F4770405D4193B3E00FD0C9F78B
:1039D000F6CF462F4F70405D4A3318F0495D31FDF8
:1039E0004052419302D0A9F7EACFB4E0A69597954B
:1039F000879577956795BA95C9F700976105710521
:103A000008959B01AC010A2E06945795479537956A
:103A10002795BA95C9F7620F731F841F951FA01DC4
:103A20000895F999FECF92BD81BDF89A992780B586
:103A30000895262FF999FECF1FBA92BD81BD20BDF2
:103A40000FB6F894FA9AF99A0FBE01960895052ECA
:103A500097FB1EF400940E943E1D57FD07D00E9464
:103A6000901D07FC03D04EF40C943E1D50954095DC
:103A7000309521953F4F4F4F5F4F0895909580951A
:103A8000709561957F4F8F4F9F4F08950E94B21D93
:103A9000A59F900DB49F900DA49F800D911D1124A2
:103AA0000895B7FF0C94461D0E94461D821B930B80
:103AB00008952F923F924F925F926F927F928F92D2
:103AC0009F92AF92BF92CF92DF92EF92FF920F93AD
:103AD0001F93CF93DF93CDB7DEB7CA1BDB0B0FB6B7
:103AE000F894DEBF0FBECDBF09942A883988488874
:103AF0005F846E847D848C849B84AA84B984C8840A
:103B0000DF80EE80FD800C811B81AA81B981CE0F00
:103B1000D11D0FB6F894DEBF0FBECDBFED010895E5
:103B2000A1E21A2EAA1BBB1BFD010DC0AA1FBB1FC1
:103B3000EE1FFF1FA217B307E407F50720F0A21B33
:103B4000B30BE40BF50B661F771F881F991F1A94A0
:103B500069F760957095809590959B01AC01BD01CA
:103B6000CF010895A29FB001B39FC001A39F700D24
:103B7000811D1124911DB29F700D811D1124911D75
:103B80000895991B79E004C0991F961708F0961BB9
:103B9000881F7A95C9F780950895AA1BBB1B51E130
:103BA00007C0AA1FBB1FA617B70710F0A61BB70BAD
:103BB000881F991F5A95A9F780959095BC01CD0152
:103BC0000895EE0FFF1F0590F491E02D0994F894ED
:023BD000FFCF25
:103BD2006363FFFFFFFF00E1000000000000FFFF42
:103BE2000100000000C1808100000000000000CC44
:103BF2000B4D0CED0BE20B330CF10B0F0C00000024
:103C0200007E118D10D210D110CF19FCFF000011CF
:023C12001A0096
:00000001FF
